{
  "abi": [
    {
      "inputs": [],
      "stateMutability": "nonpayable",
      "type": "constructor"
    },
    {
      "inputs": [],
      "name": "withdraw",
      "outputs": [],
      "stateMutability": "nonpayable",
      "type": "function"
    },
    {
      "stateMutability": "payable",
      "type": "receive"
    }
  ],
  "bytecode": {
    "object": "0x6080604052348015600f57600080fd5b50606e80601d6000396000f3fe60806040526004361060205760003560e01c80633ccfd60b14602b57600080fd5b36602657005b600080fd5b348015603657600080fd5b00fea264697066735822122017272720bd8d37405ea247fa2e83d3ec29d2f4fdfaee092bbbe890d177a259c364736f6c63430008120033",
    "linkReferences": {}
  },
  "methodIdentifiers": {
    "withdraw()": "3ccfd60b"
  },
  "id": 85
}